{
    "contractName": "CPF",
    "abi": [
        {
            "inputs": [
                {
                    "internalType": "address",
                    "name": "account",
                    "type": "address"
                }
            ],
            "name": "blockAccount",
            "outputs": [],
            "stateMutability": "nonpayable",
            "type": "function"
        },
        {
            "inputs": [
                {
                    "internalType": "address",
                    "name": "",
                    "type": "address"
                }
            ],
            "name": "blockedAccounts",
            "outputs": [
                {
                    "internalType": "bool",
                    "name": "",
                    "type": "bool"
                }
            ],
            "stateMutability": "view",
            "type": "function"
        },
        {
            "inputs": [
                {
                    "internalType": "address",
                    "name": "",
                    "type": "address"
                }
            ],
            "name": "cpfHashes",
            "outputs": [
                {
                    "internalType": "bytes32",
                    "name": "",
                    "type": "bytes32"
                }
            ],
            "stateMutability": "view",
            "type": "function"
        },
        {
            "inputs": [
                {
                    "internalType": "bytes32",
                    "name": "cpfHash",
                    "type": "bytes32"
                }
            ],
            "name": "registrarCPF",
            "outputs": [],
            "stateMutability": "nonpayable",
            "type": "function"
        },
        {
            "inputs": [
                {
                    "internalType": "address",
                    "name": "account",
                    "type": "address"
                }
            ],
            "name": "unblockAccount",
            "outputs": [],
            "stateMutability": "nonpayable",
            "type": "function"
        },
        {
            "inputs": [
                {
                    "internalType": "address",
                    "name": "user",
                    "type": "address"
                },
                {
                    "internalType": "bytes32",
                    "name": "cpfHash",
                    "type": "bytes32"
                }
            ],
            "name": "validarCPF",
            "outputs": [
                {
                    "internalType": "bool",
                    "name": "",
                    "type": "bool"
                }
            ],
            "stateMutability": "view",
            "type": "function"
        }
    ],
    "bytecode": "608060405234801561001057600080fd5b506102a9806100206000396000f3fe608060405234801561001057600080fd5b50600436106100625760003560e01c80630c14f2721461006757806318e54b8d146100a95780634d78fdc6146100d75780637c0a893d14610108578063956e79b21461013d578063f45bf3d214610150575b600080fd5b61009461007536600461020e565b6001600160a01b03919091166000908152602081905260409020541490565b60405190151581526020015b60405180910390f35b6100c96100b7366004610238565b60006020819052908152604090205481565b6040519081526020016100a0565b6101066100e5366004610238565b6001600160a01b03166000908152600160205260409020805460ff19169055565b005b610106610116366004610238565b6001600160a01b03166000908152600160208190526040909120805460ff19169091179055565b61010661014b36600461025a565b610173565b61009461015e366004610238565b60016020526000908152604090205460ff1681565b33600090815260208190526040902054156101e05760405162461bcd60e51b8152602060048201526024808201527f435046206a61207265676973747261646f2070617261206573746520656e64656044820152637265636f60e01b606482015260840160405180910390fd5b33600090815260208190526040902055565b80356001600160a01b038116811461020957600080fd5b919050565b6000806040838503121561022157600080fd5b61022a836101f2565b946020939093013593505050565b60006020828403121561024a57600080fd5b610253826101f2565b9392505050565b60006020828403121561026c57600080fd5b503591905056fea264697066735822122036dbfa33a0681906ff59d87eb074262ca53eae0172b41584a5ae0f931500d82564736f6c63430008130033",
    "sourcePath": "d:/Clouds/Dropbox/.Git/ETHHackthon2023/contracts/CPF.sol",
    "compiler": {
        "name": "solc",
        "version": "0.8.19+commit.7dd6d404"
    },
    "functionHashes": {
        "blockAccount(address)": "7c0a893d",
        "blockedAccounts(address)": "f45bf3d2",
        "cpfHashes(address)": "18e54b8d",
        "registrarCPF(bytes32)": "956e79b2",
        "unblockAccount(address)": "4d78fdc6",
        "validarCPF(address,bytes32)": "0c14f272"
    },
    "gasEstimates": {
        "creation": {
            "codeDepositCost": "136200",
            "executionCost": "183",
            "totalCost": "136383"
        },
        "external": {
            "blockAccount(address)": "24654",
            "blockedAccounts(address)": "2608",
            "cpfHashes(address)": "2522",
            "registrarCPF(bytes32)": "24652",
            "unblockAccount(address)": "24614",
            "validarCPF(address,bytes32)": "2546"
        }
    }
}