{
    "contractName": "EmprestaFacil",
    "abi": [
        {
            "inputs": [],
            "stateMutability": "nonpayable",
            "type": "constructor"
        },
        {
            "inputs": [],
            "name": "InvalidShortString",
            "type": "error"
        },
        {
            "inputs": [
                {
                    "internalType": "string",
                    "name": "str",
                    "type": "string"
                }
            ],
            "name": "StringTooLong",
            "type": "error"
        },
        {
            "anonymous": false,
            "inputs": [
                {
                    "indexed": true,
                    "internalType": "address",
                    "name": "owner",
                    "type": "address"
                },
                {
                    "indexed": true,
                    "internalType": "address",
                    "name": "spender",
                    "type": "address"
                },
                {
                    "indexed": false,
                    "internalType": "uint256",
                    "name": "value",
                    "type": "uint256"
                }
            ],
            "name": "Approval",
            "type": "event"
        },
        {
            "anonymous": false,
            "inputs": [],
            "name": "EIP712DomainChanged",
            "type": "event"
        },
        {
            "anonymous": false,
            "inputs": [
                {
                    "indexed": true,
                    "internalType": "address",
                    "name": "previousOwner",
                    "type": "address"
                },
                {
                    "indexed": true,
                    "internalType": "address",
                    "name": "newOwner",
                    "type": "address"
                }
            ],
            "name": "OwnershipTransferred",
            "type": "event"
        },
        {
            "anonymous": false,
            "inputs": [
                {
                    "indexed": true,
                    "internalType": "address",
                    "name": "from",
                    "type": "address"
                },
                {
                    "indexed": true,
                    "internalType": "address",
                    "name": "to",
                    "type": "address"
                },
                {
                    "indexed": false,
                    "internalType": "uint256",
                    "name": "value",
                    "type": "uint256"
                }
            ],
            "name": "Transfer",
            "type": "event"
        },
        {
            "inputs": [],
            "name": "DOMAIN_SEPARATOR",
            "outputs": [
                {
                    "internalType": "bytes32",
                    "name": "",
                    "type": "bytes32"
                }
            ],
            "stateMutability": "view",
            "type": "function"
        },
        {
            "inputs": [
                {
                    "internalType": "address",
                    "name": "owner",
                    "type": "address"
                },
                {
                    "internalType": "address",
                    "name": "spender",
                    "type": "address"
                }
            ],
            "name": "allowance",
            "outputs": [
                {
                    "internalType": "uint256",
                    "name": "",
                    "type": "uint256"
                }
            ],
            "stateMutability": "view",
            "type": "function"
        },
        {
            "inputs": [
                {
                    "internalType": "address",
                    "name": "spender",
                    "type": "address"
                },
                {
                    "internalType": "uint256",
                    "name": "amount",
                    "type": "uint256"
                }
            ],
            "name": "approve",
            "outputs": [
                {
                    "internalType": "bool",
                    "name": "",
                    "type": "bool"
                }
            ],
            "stateMutability": "nonpayable",
            "type": "function"
        },
        {
            "inputs": [
                {
                    "internalType": "address",
                    "name": "account",
                    "type": "address"
                }
            ],
            "name": "balanceOf",
            "outputs": [
                {
                    "internalType": "uint256",
                    "name": "",
                    "type": "uint256"
                }
            ],
            "stateMutability": "view",
            "type": "function"
        },
        {
            "inputs": [
                {
                    "internalType": "uint256",
                    "name": "amount",
                    "type": "uint256"
                }
            ],
            "name": "burn",
            "outputs": [],
            "stateMutability": "nonpayable",
            "type": "function"
        },
        {
            "inputs": [
                {
                    "internalType": "address",
                    "name": "account",
                    "type": "address"
                },
                {
                    "internalType": "uint256",
                    "name": "amount",
                    "type": "uint256"
                }
            ],
            "name": "burnFrom",
            "outputs": [],
            "stateMutability": "nonpayable",
            "type": "function"
        },
        {
            "inputs": [],
            "name": "decimals",
            "outputs": [
                {
                    "internalType": "uint8",
                    "name": "",
                    "type": "uint8"
                }
            ],
            "stateMutability": "view",
            "type": "function"
        },
        {
            "inputs": [
                {
                    "internalType": "address",
                    "name": "spender",
                    "type": "address"
                },
                {
                    "internalType": "uint256",
                    "name": "subtractedValue",
                    "type": "uint256"
                }
            ],
            "name": "decreaseAllowance",
            "outputs": [
                {
                    "internalType": "bool",
                    "name": "",
                    "type": "bool"
                }
            ],
            "stateMutability": "nonpayable",
            "type": "function"
        },
        {
            "inputs": [],
            "name": "eip712Domain",
            "outputs": [
                {
                    "internalType": "bytes1",
                    "name": "fields",
                    "type": "bytes1"
                },
                {
                    "internalType": "string",
                    "name": "name",
                    "type": "string"
                },
                {
                    "internalType": "string",
                    "name": "version",
                    "type": "string"
                },
                {
                    "internalType": "uint256",
                    "name": "chainId",
                    "type": "uint256"
                },
                {
                    "internalType": "address",
                    "name": "verifyingContract",
                    "type": "address"
                },
                {
                    "internalType": "bytes32",
                    "name": "salt",
                    "type": "bytes32"
                },
                {
                    "internalType": "uint256[]",
                    "name": "extensions",
                    "type": "uint256[]"
                }
            ],
            "stateMutability": "view",
            "type": "function"
        },
        {
            "inputs": [
                {
                    "internalType": "address",
                    "name": "token",
                    "type": "address"
                },
                {
                    "internalType": "uint256",
                    "name": "amount",
                    "type": "uint256"
                }
            ],
            "name": "flashFee",
            "outputs": [
                {
                    "internalType": "uint256",
                    "name": "",
                    "type": "uint256"
                }
            ],
            "stateMutability": "view",
            "type": "function"
        },
        {
            "inputs": [
                {
                    "internalType": "contract IERC3156FlashBorrower",
                    "name": "receiver",
                    "type": "address"
                },
                {
                    "internalType": "address",
                    "name": "token",
                    "type": "address"
                },
                {
                    "internalType": "uint256",
                    "name": "amount",
                    "type": "uint256"
                },
                {
                    "internalType": "bytes",
                    "name": "data",
                    "type": "bytes"
                }
            ],
            "name": "flashLoan",
            "outputs": [
                {
                    "internalType": "bool",
                    "name": "",
                    "type": "bool"
                }
            ],
            "stateMutability": "nonpayable",
            "type": "function"
        },
        {
            "inputs": [
                {
                    "internalType": "address",
                    "name": "spender",
                    "type": "address"
                },
                {
                    "internalType": "uint256",
                    "name": "addedValue",
                    "type": "uint256"
                }
            ],
            "name": "increaseAllowance",
            "outputs": [
                {
                    "internalType": "bool",
                    "name": "",
                    "type": "bool"
                }
            ],
            "stateMutability": "nonpayable",
            "type": "function"
        },
        {
            "inputs": [
                {
                    "internalType": "address",
                    "name": "token",
                    "type": "address"
                }
            ],
            "name": "maxFlashLoan",
            "outputs": [
                {
                    "internalType": "uint256",
                    "name": "",
                    "type": "uint256"
                }
            ],
            "stateMutability": "view",
            "type": "function"
        },
        {
            "inputs": [
                {
                    "internalType": "address",
                    "name": "to",
                    "type": "address"
                },
                {
                    "internalType": "uint256",
                    "name": "amount",
                    "type": "uint256"
                }
            ],
            "name": "mint",
            "outputs": [],
            "stateMutability": "nonpayable",
            "type": "function"
        },
        {
            "inputs": [],
            "name": "name",
            "outputs": [
                {
                    "internalType": "string",
                    "name": "",
                    "type": "string"
                }
            ],
            "stateMutability": "view",
            "type": "function"
        },
        {
            "inputs": [
                {
                    "internalType": "address",
                    "name": "owner",
                    "type": "address"
                }
            ],
            "name": "nonces",
            "outputs": [
                {
                    "internalType": "uint256",
                    "name": "",
                    "type": "uint256"
                }
            ],
            "stateMutability": "view",
            "type": "function"
        },
        {
            "inputs": [],
            "name": "owner",
            "outputs": [
                {
                    "internalType": "address",
                    "name": "",
                    "type": "address"
                }
            ],
            "stateMutability": "view",
            "type": "function"
        },
        {
            "inputs": [
                {
                    "internalType": "address",
                    "name": "owner",
                    "type": "address"
                },
                {
                    "internalType": "address",
                    "name": "spender",
                    "type": "address"
                },
                {
                    "internalType": "uint256",
                    "name": "value",
                    "type": "uint256"
                },
                {
                    "internalType": "uint256",
                    "name": "deadline",
                    "type": "uint256"
                },
                {
                    "internalType": "uint8",
                    "name": "v",
                    "type": "uint8"
                },
                {
                    "internalType": "bytes32",
                    "name": "r",
                    "type": "bytes32"
                },
                {
                    "internalType": "bytes32",
                    "name": "s",
                    "type": "bytes32"
                }
            ],
            "name": "permit",
            "outputs": [],
            "stateMutability": "nonpayable",
            "type": "function"
        },
        {
            "inputs": [],
            "name": "renounceOwnership",
            "outputs": [],
            "stateMutability": "nonpayable",
            "type": "function"
        },
        {
            "inputs": [],
            "name": "symbol",
            "outputs": [
                {
                    "internalType": "string",
                    "name": "",
                    "type": "string"
                }
            ],
            "stateMutability": "view",
            "type": "function"
        },
        {
            "inputs": [],
            "name": "totalSupply",
            "outputs": [
                {
                    "internalType": "uint256",
                    "name": "",
                    "type": "uint256"
                }
            ],
            "stateMutability": "view",
            "type": "function"
        },
        {
            "inputs": [
                {
                    "internalType": "address",
                    "name": "to",
                    "type": "address"
                },
                {
                    "internalType": "uint256",
                    "name": "amount",
                    "type": "uint256"
                }
            ],
            "name": "transfer",
            "outputs": [
                {
                    "internalType": "bool",
                    "name": "",
                    "type": "bool"
                }
            ],
            "stateMutability": "nonpayable",
            "type": "function"
        },
        {
            "inputs": [
                {
                    "internalType": "address",
                    "name": "from",
                    "type": "address"
                },
                {
                    "internalType": "address",
                    "name": "to",
                    "type": "address"
                },
                {
                    "internalType": "uint256",
                    "name": "amount",
                    "type": "uint256"
                }
            ],
            "name": "transferFrom",
            "outputs": [
                {
                    "internalType": "bool",
                    "name": "",
                    "type": "bool"
                }
            ],
            "stateMutability": "nonpayable",
            "type": "function"
        },
        {
            "inputs": [
                {
                    "internalType": "address",
                    "name": "newOwner",
                    "type": "address"
                }
            ],
            "name": "transferOwnership",
            "outputs": [],
            "stateMutability": "nonpayable",
            "type": "function"
        }
    ],
    "bytecode": "6101606040523480156200001257600080fd5b506040518060400160405280600d81526020016c115b5c1c995cdd18519858da5b609a1b81525080604051806040016040528060018152602001603160f81b8152506040518060400160405280600d81526020016c115b5c1c995cdd18519858da5b609a1b8152506040518060400160405280600481526020016332b6b83360e11b8152508160039081620000a89190620003f9565b506004620000b78282620003f9565b505050620000d4620000ce620001b760201b60201c565b620001bb565b620000e18260066200020d565b61012052620000f28160076200020d565b61014052815160208084019190912060e052815190820120610100524660a0526200018060e05161010051604080517f8b73c3c69bb8fe3d512ecc4cf759cc79239f7b179b0ffacaa9a75d522b39400f60208201529081019290925260608201524660808201523060a082015260009060c00160405160208183030381529060405280519060200120905090565b60805250503060c05250620001b1336200019d6012600a620005d8565b620001ab90612710620005f0565b62000246565b62000695565b3390565b600580546001600160a01b038381166001600160a01b0319831681179093556040519116919082907f8be0079c531659141344cd1fd0a4f28419497f9722a3daafe3b4186f6b6457e090600090a35050565b60006020835110156200022d5762000225836200030d565b905062000240565b816200023a8482620003f9565b5060ff90505b92915050565b6001600160a01b038216620002a25760405162461bcd60e51b815260206004820152601f60248201527f45524332303a206d696e7420746f20746865207a65726f20616464726573730060448201526064015b60405180910390fd5b8060026000828254620002b691906200060a565b90915550506001600160a01b038216600081815260208181526040808320805486019055518481527fddf252ad1be2c89b69c2b068fc378daa952ba7f163c4a11628f55a4df523b3ef910160405180910390a35050565b600080829050601f815111156200033b578260405163305a27a960e01b815260040162000299919062000620565b8051620003488262000670565b179392505050565b505050565b634e487b7160e01b600052604160045260246000fd5b600181811c908216806200038057607f821691505b602082108103620003a157634e487b7160e01b600052602260045260246000fd5b50919050565b601f8211156200035057600081815260208120601f850160051c81016020861015620003d05750805b601f850160051c820191505b81811015620003f157828155600101620003dc565b505050505050565b81516001600160401b0381111562000415576200041562000355565b6200042d816200042684546200036b565b84620003a7565b602080601f8311600181146200046557600084156200044c5750858301515b600019600386901b1c1916600185901b178555620003f1565b600085815260208120601f198616915b82811015620004965788860151825594840194600190910190840162000475565b5085821015620004b55787850151600019600388901b60f8161c191681555b5050505050600190811b01905550565b634e487b7160e01b600052601160045260246000fd5b600181815b808511156200051c578160001904821115620005005762000500620004c5565b808516156200050e57918102915b93841c9390800290620004e0565b509250929050565b600082620005355750600162000240565b81620005445750600062000240565b81600181146200055d5760028114620005685762000588565b600191505062000240565b60ff8411156200057c576200057c620004c5565b50506001821b62000240565b5060208310610133831016604e8410600b8410161715620005ad575081810a62000240565b620005b98383620004db565b8060001904821115620005d057620005d0620004c5565b029392505050565b6000620005e960ff84168362000524565b9392505050565b8082028115828204841417620002405762000240620004c5565b80820180821115620002405762000240620004c5565b600060208083528351808285015260005b818110156200064f5785810183015185820160400152820162000631565b506000604082860101526040601f19601f8301168501019250505092915050565b80516020808301519190811015620003a15760001960209190910360031b1b16919050565b60805160a05160c05160e05161010051610120516101405161190f620006f060003960006106f7015260006106cc01526000610e6501526000610e3d01526000610d9801526000610dc201526000610dec015261190f6000f3fe608060405234801561001057600080fd5b50600436106101585760003560e01c8063715018a6116100c3578063a457c2d71161007c578063a457c2d7146102d0578063a9059cbb146102e3578063d505accf146102f6578063d9d98ce414610309578063dd62ed3e1461031c578063f2fde38b1461032f57600080fd5b8063715018a61461026457806379cc67901461026c5780637ecebe001461027f57806384b0196e146102925780638da5cb5b146102ad57806395d89b41146102c857600080fd5b8063395093511161011557806339509351146101da57806340c10f19146101ed57806342966c68146102025780635cffe9de14610215578063613255ab1461022857806370a082311461023b57600080fd5b806306fdde031461015d578063095ea7b31461017b57806318160ddd1461019e57806323b872dd146101b0578063313ce567146101c35780633644e515146101d2575b600080fd5b610165610342565b604051610172919061152e565b60405180910390f35b61018e610189366004611556565b6103d4565b6040519015158152602001610172565b6002545b604051908152602001610172565b61018e6101be366004611582565b6103ee565b60405160128152602001610172565b6101a2610412565b61018e6101e8366004611556565b610421565b6102006101fb366004611556565b610443565b005b6102006102103660046115c3565b610459565b61018e6102233660046115dc565b610466565b6101a261023636600461167b565b61064f565b6101a261024936600461167b565b6001600160a01b031660009081526020819052604090205490565b610200610677565b61020061027a366004611556565b61068b565b6101a261028d36600461167b565b6106a0565b61029a6106be565b6040516101729796959493929190611698565b6005546040516001600160a01b039091168152602001610172565b610165610747565b61018e6102de366004611556565b610756565b61018e6102f1366004611556565b6107d1565b61020061030436600461172e565b6107df565b6101a2610317366004611556565b610943565b6101a261032a3660046117a5565b6109a7565b61020061033d36600461167b565b6109d2565b606060038054610351906117de565b80601f016020809104026020016040519081016040528092919081815260200182805461037d906117de565b80156103ca5780601f1061039f576101008083540402835291602001916103ca565b820191906000526020600020905b8154815290600101906020018083116103ad57829003601f168201915b5050505050905090565b6000336103e2818585610a48565b60019150505b92915050565b6000336103fc858285610b6d565b610407858585610be7565b506001949350505050565b600061041c610d8b565b905090565b6000336103e281858561043483836109a7565b61043e9190611828565b610a48565b61044b610eb6565b6104558282610f10565b5050565b6104633382610fcf565b50565b60006104718561064f565b8411156104d95760405162461bcd60e51b815260206004820152602b60248201527f4552433230466c6173684d696e743a20616d6f756e742065786365656473206d60448201526a30bc233630b9b42637b0b760a91b60648201526084015b60405180910390fd5b60006104e58686610943565b90506104f18786610f10565b6040516323e30c8b60e01b81527f439148f0bbc682ca079e46d6e2c2f0c1e3b820f1a291b069d8882abf8cf18dd9906001600160a01b038916906323e30c8b906105499033908b908b9088908c908c9060040161183b565b6020604051808303816000875af1158015610568573d6000803e3d6000fd5b505050506040513d601f19601f8201168201806040525081019061058c9190611897565b146105e55760405162461bcd60e51b8152602060048201526024808201527f4552433230466c6173684d696e743a20696e76616c69642072657475726e2076604482015263616c756560e01b60648201526084016104d0565b60006105fb88306105f6858a611828565b610b6d565b81158061060f57506001600160a01b038116155b1561062c57610627886106228489611828565b610fcf565b610641565b6106368887610fcf565b610641888284610be7565b506001979650505050505050565b60006001600160a01b03821630146106685760006103e8565b6002546103e8906000196118b0565b61067f610eb6565b61068960006110f9565b565b610696823383610b6d565b6104558282610fcf565b6001600160a01b0381166000908152600860205260408120546103e8565b6000606080828080836106f27f0000000000000000000000000000000000000000000000000000000000000000600661114b565b61071d7f0000000000000000000000000000000000000000000000000000000000000000600761114b565b60408051600080825260208201909252600f60f81b9b939a50919850469750309650945092509050565b606060048054610351906117de565b6000338161076482866109a7565b9050838110156107c45760405162461bcd60e51b815260206004820152602560248201527f45524332303a2064656372656173656420616c6c6f77616e63652062656c6f77604482015264207a65726f60d81b60648201526084016104d0565b6104078286868403610a48565b6000336103e2818585610be7565b8342111561082f5760405162461bcd60e51b815260206004820152601d60248201527f45524332305065726d69743a206578706972656420646561646c696e6500000060448201526064016104d0565b60007f6e71edae12b1b97f4d1f60370fef10105fa2faae0126114a169c64845d6126c988888861085e8c6111f6565b6040805160208101969096526001600160a01b0394851690860152929091166060840152608083015260a082015260c0810186905260e00160405160208183030381529060405280519060200120905060006108b98261121e565b905060006108c98287878761124b565b9050896001600160a01b0316816001600160a01b03161461092c5760405162461bcd60e51b815260206004820152601e60248201527f45524332305065726d69743a20696e76616c6964207369676e6174757265000060448201526064016104d0565b6109378a8a8a610a48565b50505050505050505050565b60006001600160a01b038316301461099d5760405162461bcd60e51b815260206004820152601b60248201527f4552433230466c6173684d696e743a2077726f6e6720746f6b656e000000000060448201526064016104d0565b60005b9392505050565b6001600160a01b03918216600090815260016020908152604080832093909416825291909152205490565b6109da610eb6565b6001600160a01b038116610a3f5760405162461bcd60e51b815260206004820152602660248201527f4f776e61626c653a206e6577206f776e657220697320746865207a65726f206160448201526564647265737360d01b60648201526084016104d0565b610463816110f9565b6001600160a01b038316610aaa5760405162461bcd60e51b8152602060048201526024808201527f45524332303a20617070726f76652066726f6d20746865207a65726f206164646044820152637265737360e01b60648201526084016104d0565b6001600160a01b038216610b0b5760405162461bcd60e51b815260206004820152602260248201527f45524332303a20617070726f766520746f20746865207a65726f206164647265604482015261737360f01b60648201526084016104d0565b6001600160a01b0383811660008181526001602090815260408083209487168084529482529182902085905590518481527f8c5be1e5ebec7d5bd14f71427d1e84f3dd0314c0f7b2291e5b200ac8c7c3b92591015b60405180910390a3505050565b6000610b7984846109a7565b90506000198114610be15781811015610bd45760405162461bcd60e51b815260206004820152601d60248201527f45524332303a20696e73756666696369656e7420616c6c6f77616e636500000060448201526064016104d0565b610be18484848403610a48565b50505050565b6001600160a01b038316610c4b5760405162461bcd60e51b815260206004820152602560248201527f45524332303a207472616e736665722066726f6d20746865207a65726f206164604482015264647265737360d81b60648201526084016104d0565b6001600160a01b038216610cad5760405162461bcd60e51b815260206004820152602360248201527f45524332303a207472616e7366657220746f20746865207a65726f206164647260448201526265737360e81b60648201526084016104d0565b6001600160a01b03831660009081526020819052604090205481811015610d255760405162461bcd60e51b815260206004820152602660248201527f45524332303a207472616e7366657220616d6f756e7420657863656564732062604482015265616c616e636560d01b60648201526084016104d0565b6001600160a01b03848116600081815260208181526040808320878703905593871680835291849020805487019055925185815290927fddf252ad1be2c89b69c2b068fc378daa952ba7f163c4a11628f55a4df523b3ef910160405180910390a3610be1565b6000306001600160a01b037f000000000000000000000000000000000000000000000000000000000000000016148015610de457507f000000000000000000000000000000000000000000000000000000000000000046145b15610e0e57507f000000000000000000000000000000000000000000000000000000000000000090565b61041c604080517f8b73c3c69bb8fe3d512ecc4cf759cc79239f7b179b0ffacaa9a75d522b39400f60208201527f0000000000000000000000000000000000000000000000000000000000000000918101919091527f000000000000000000000000000000000000000000000000000000000000000060608201524660808201523060a082015260009060c00160405160208183030381529060405280519060200120905090565b6005546001600160a01b031633146106895760405162461bcd60e51b815260206004820181905260248201527f4f776e61626c653a2063616c6c6572206973206e6f7420746865206f776e657260448201526064016104d0565b6001600160a01b038216610f665760405162461bcd60e51b815260206004820152601f60248201527f45524332303a206d696e7420746f20746865207a65726f20616464726573730060448201526064016104d0565b8060026000828254610f789190611828565b90915550506001600160a01b038216600081815260208181526040808320805486019055518481527fddf252ad1be2c89b69c2b068fc378daa952ba7f163c4a11628f55a4df523b3ef910160405180910390a35050565b6001600160a01b03821661102f5760405162461bcd60e51b815260206004820152602160248201527f45524332303a206275726e2066726f6d20746865207a65726f206164647265736044820152607360f81b60648201526084016104d0565b6001600160a01b038216600090815260208190526040902054818110156110a35760405162461bcd60e51b815260206004820152602260248201527f45524332303a206275726e20616d6f756e7420657863656564732062616c616e604482015261636560f01b60648201526084016104d0565b6001600160a01b0383166000818152602081815260408083208686039055600280548790039055518581529192917fddf252ad1be2c89b69c2b068fc378daa952ba7f163c4a11628f55a4df523b3ef9101610b60565b600580546001600160a01b038381166001600160a01b0319831681179093556040519116919082907f8be0079c531659141344cd1fd0a4f28419497f9722a3daafe3b4186f6b6457e090600090a35050565b606060ff83146111655761115e83611273565b90506103e8565b818054611171906117de565b80601f016020809104026020016040519081016040528092919081815260200182805461119d906117de565b80156111ea5780601f106111bf576101008083540402835291602001916111ea565b820191906000526020600020905b8154815290600101906020018083116111cd57829003601f168201915b505050505090506103e8565b6001600160a01b03811660009081526008602052604090208054600181018255905b50919050565b60006103e861122b610d8b565b8360405161190160f01b8152600281019290925260228201526042902090565b600080600061125c878787876112b2565b9150915061126981611376565b5095945050505050565b60606000611280836114c0565b604080516020808252818301909252919250600091906020820181803683375050509182525060208101929092525090565b6000807f7fffffffffffffffffffffffffffffff5d576e7357a4501ddfe92f46681b20a08311156112e9575060009050600361136d565b6040805160008082526020820180845289905260ff881692820192909252606081018690526080810185905260019060a0016020604051602081039080840390855afa15801561133d573d6000803e3d6000fd5b5050604051601f1901519150506001600160a01b0381166113665760006001925092505061136d565b9150600090505b94509492505050565b600081600481111561138a5761138a6118c3565b036113925750565b60018160048111156113a6576113a66118c3565b036113f35760405162461bcd60e51b815260206004820152601860248201527f45434453413a20696e76616c6964207369676e6174757265000000000000000060448201526064016104d0565b6002816004811115611407576114076118c3565b036114545760405162461bcd60e51b815260206004820152601f60248201527f45434453413a20696e76616c6964207369676e6174757265206c656e6774680060448201526064016104d0565b6003816004811115611468576114686118c3565b036104635760405162461bcd60e51b815260206004820152602260248201527f45434453413a20696e76616c6964207369676e6174757265202773272076616c604482015261756560f01b60648201526084016104d0565b600060ff8216601f8111156103e857604051632cd44ac360e21b815260040160405180910390fd5b6000815180845260005b8181101561150e576020818501810151868301820152016114f2565b506000602082860101526020601f19601f83011685010191505092915050565b6020815260006109a060208301846114e8565b6001600160a01b038116811461046357600080fd5b6000806040838503121561156957600080fd5b823561157481611541565b946020939093013593505050565b60008060006060848603121561159757600080fd5b83356115a281611541565b925060208401356115b281611541565b929592945050506040919091013590565b6000602082840312156115d557600080fd5b5035919050565b6000806000806000608086880312156115f457600080fd5b85356115ff81611541565b9450602086013561160f81611541565b935060408601359250606086013567ffffffffffffffff8082111561163357600080fd5b818801915088601f83011261164757600080fd5b81358181111561165657600080fd5b89602082850101111561166857600080fd5b9699959850939650602001949392505050565b60006020828403121561168d57600080fd5b81356109a081611541565b60ff60f81b881681526000602060e0818401526116b860e084018a6114e8565b83810360408501526116ca818a6114e8565b606085018990526001600160a01b038816608086015260a0850187905284810360c0860152855180825283870192509083019060005b8181101561171c57835183529284019291840191600101611700565b50909c9b505050505050505050505050565b600080600080600080600060e0888a03121561174957600080fd5b873561175481611541565b9650602088013561176481611541565b95506040880135945060608801359350608088013560ff8116811461178857600080fd5b9699959850939692959460a0840135945060c09093013592915050565b600080604083850312156117b857600080fd5b82356117c381611541565b915060208301356117d381611541565b809150509250929050565b600181811c908216806117f257607f821691505b60208210810361121857634e487b7160e01b600052602260045260246000fd5b634e487b7160e01b600052601160045260246000fd5b808201808211156103e8576103e8611812565b6001600160a01b03878116825286166020820152604081018590526060810184905260a06080820181905281018290526000828460c0840137600060c0848401015260c0601f19601f8501168301019050979650505050505050565b6000602082840312156118a957600080fd5b5051919050565b818103818111156103e8576103e8611812565b634e487b7160e01b600052602160045260246000fdfea2646970667358221220a8ef59f2ede02a4b3abb1af9e1ce76192a4c9f9f05f6c1f2ea8d726075cf97ec64736f6c63430008130033",
    "sourcePath": "d:/Clouds/Dropbox/.Git/ETHHackthon2023/contracts/Emprestimo.sol",
    "compiler": {
        "name": "solc",
        "version": "0.8.19+commit.7dd6d404"
    },
    "functionHashes": {
        "DOMAIN_SEPARATOR()": "3644e515",
        "allowance(address,address)": "dd62ed3e",
        "approve(address,uint256)": "095ea7b3",
        "balanceOf(address)": "70a08231",
        "burn(uint256)": "42966c68",
        "burnFrom(address,uint256)": "79cc6790",
        "decimals()": "313ce567",
        "decreaseAllowance(address,uint256)": "a457c2d7",
        "eip712Domain()": "84b0196e",
        "flashFee(address,uint256)": "d9d98ce4",
        "flashLoan(address,address,uint256,bytes)": "5cffe9de",
        "increaseAllowance(address,uint256)": "39509351",
        "maxFlashLoan(address)": "613255ab",
        "mint(address,uint256)": "40c10f19",
        "name()": "06fdde03",
        "nonces(address)": "7ecebe00",
        "owner()": "8da5cb5b",
        "permit(address,address,uint256,uint256,uint8,bytes32,bytes32)": "d505accf",
        "renounceOwnership()": "715018a6",
        "symbol()": "95d89b41",
        "totalSupply()": "18160ddd",
        "transfer(address,uint256)": "a9059cbb",
        "transferFrom(address,address,uint256)": "23b872dd",
        "transferOwnership(address)": "f2fde38b"
    },
    "gasEstimates": {
        "creation": {
            "codeDepositCost": "1283000",
            "executionCost": "infinite",
            "totalCost": "infinite"
        },
        "external": {
            "DOMAIN_SEPARATOR()": "infinite",
            "allowance(address,address)": "infinite",
            "approve(address,uint256)": "24646",
            "balanceOf(address)": "2667",
            "burn(uint256)": "50827",
            "burnFrom(address,uint256)": "infinite",
            "decimals()": "289",
            "decreaseAllowance(address,uint256)": "26967",
            "eip712Domain()": "infinite",
            "flashFee(address,uint256)": "555",
            "flashLoan(address,address,uint256,bytes)": "infinite",
            "increaseAllowance(address,uint256)": "infinite",
            "maxFlashLoan(address)": "infinite",
            "mint(address,uint256)": "53008",
            "name()": "infinite",
            "nonces(address)": "2632",
            "owner()": "2412",
            "permit(address,address,uint256,uint256,uint8,bytes32,bytes32)": "infinite",
            "renounceOwnership()": "infinite",
            "symbol()": "infinite",
            "totalSupply()": "2349",
            "transfer(address,uint256)": "51088",
            "transferFrom(address,address,uint256)": "infinite",
            "transferOwnership(address)": "infinite"
        }
    }
}