{
    "contractName": "Investimento",
    "abi": [
        {
            "inputs": [
                {
                    "internalType": "address",
                    "name": "_tokenAddress",
                    "type": "address"
                }
            ],
            "stateMutability": "nonpayable",
            "type": "constructor"
        },
        {
            "inputs": [
                {
                    "internalType": "uint256",
                    "name": "amount",
                    "type": "uint256"
                }
            ],
            "name": "investir",
            "outputs": [],
            "stateMutability": "nonpayable",
            "type": "function"
        },
        {
            "inputs": [
                {
                    "internalType": "address",
                    "name": "",
                    "type": "address"
                }
            ],
            "name": "investments",
            "outputs": [
                {
                    "internalType": "uint256",
                    "name": "",
                    "type": "uint256"
                }
            ],
            "stateMutability": "view",
            "type": "function"
        },
        {
            "inputs": [],
            "name": "token",
            "outputs": [
                {
                    "internalType": "contract IERC20",
                    "name": "",
                    "type": "address"
                }
            ],
            "stateMutability": "view",
            "type": "function"
        }
    ],
    "bytecode": "608060405234801561001057600080fd5b5060405161039d38038061039d83398101604081905261002f91610054565b600080546001600160a01b0319166001600160a01b0392909216919091179055610084565b60006020828403121561006657600080fd5b81516001600160a01b038116811461007d57600080fd5b9392505050565b61030a806100936000396000f3fe608060405234801561001057600080fd5b50600436106100415760003560e01c80630d575c6d1461004657806396b988621461005b578063fc0c546a1461008e575b600080fd5b610059610054366004610229565b6100b9565b005b61007b610069366004610242565b60016020526000908152604090205481565b6040519081526020015b60405180910390f35b6000546100a1906001600160a01b031681565b6040516001600160a01b039091168152602001610085565b6000546040516370a0823160e01b815233600482015282916001600160a01b0316906370a0823190602401602060405180830381865afa158015610101573d6000803e3d6000fd5b505050506040513d601f19601f820116820180604052508101906101259190610272565b10156101865760405162461bcd60e51b815260206004820152602660248201527f53616c646f20696e737566696369656e74652070617261206f20696e76657374604482015265696d656e746f60d01b606482015260840160405180910390fd5b6000546040516323b872dd60e01b8152336004820152306024820152604481018390526001600160a01b03909116906323b872dd906064016020604051808303816000875af11580156101dd573d6000803e3d6000fd5b505050506040513d601f19601f82011682018060405250810190610201919061028b565b5033600090815260016020526040812080548392906102219084906102ad565b909155505050565b60006020828403121561023b57600080fd5b5035919050565b60006020828403121561025457600080fd5b81356001600160a01b038116811461026b57600080fd5b9392505050565b60006020828403121561028457600080fd5b5051919050565b60006020828403121561029d57600080fd5b8151801515811461026b57600080fd5b808201808211156102ce57634e487b7160e01b600052601160045260246000fd5b9291505056fea26469706673582212203316ae1839d58e9917659a44b808aa8bacc34973dc7ce2517a74877f11e3bdd064736f6c63430008130033",
    "sourcePath": "d:/Clouds/Dropbox/.Git/ETHHackthon2023/contracts/Investimento.sol",
    "compiler": {
        "name": "solc",
        "version": "0.8.19+commit.7dd6d404"
    },
    "functionHashes": {
        "investir(uint256)": "0d575c6d",
        "investments(address)": "96b98862",
        "token()": "fc0c546a"
    },
    "gasEstimates": {
        "creation": {
            "codeDepositCost": "155600",
            "executionCost": "infinite",
            "totalCost": "infinite"
        },
        "external": {
            "investir(uint256)": "infinite",
            "investments(address)": "2473",
            "token()": "2359"
        }
    }
}