{
  "contractName": "EmprestaFacil",
  "abi": [
    {
      "inputs": [],
      "stateMutability": "nonpayable",
      "type": "constructor"
    },
    {
      "anonymous": false,
      "inputs": [
        {
          "indexed": true,
          "internalType": "address",
          "name": "owner",
          "type": "address"
        },
        {
          "indexed": true,
          "internalType": "address",
          "name": "spender",
          "type": "address"
        },
        {
          "indexed": false,
          "internalType": "uint256",
          "name": "value",
          "type": "uint256"
        }
      ],
      "name": "Approval",
      "type": "event"
    },
    {
      "anonymous": false,
      "inputs": [
        {
          "indexed": false,
          "internalType": "uint256",
          "name": "loanId",
          "type": "uint256"
        },
        {
          "indexed": true,
          "internalType": "address",
          "name": "borrower",
          "type": "address"
        },
        {
          "indexed": true,
          "internalType": "address",
          "name": "lender",
          "type": "address"
        },
        {
          "indexed": false,
          "internalType": "uint256",
          "name": "amount",
          "type": "uint256"
        }
      ],
      "name": "LoanCreated",
      "type": "event"
    },
    {
      "anonymous": false,
      "inputs": [
        {
          "indexed": false,
          "internalType": "uint256",
          "name": "loanId",
          "type": "uint256"
        }
      ],
      "name": "LoanPaid",
      "type": "event"
    },
    {
      "anonymous": false,
      "inputs": [
        {
          "indexed": true,
          "internalType": "address",
          "name": "from",
          "type": "address"
        },
        {
          "indexed": true,
          "internalType": "address",
          "name": "to",
          "type": "address"
        },
        {
          "indexed": false,
          "internalType": "uint256",
          "name": "value",
          "type": "uint256"
        }
      ],
      "name": "Transfer",
      "type": "event"
    },
    {
      "anonymous": false,
      "inputs": [
        {
          "indexed": true,
          "internalType": "address",
          "name": "user",
          "type": "address"
        }
      ],
      "name": "UserRegistered",
      "type": "event"
    },
    {
      "inputs": [],
      "name": "EMPF_TO_ETH",
      "outputs": [
        {
          "internalType": "uint256",
          "name": "",
          "type": "uint256"
        }
      ],
      "stateMutability": "view",
      "type": "function"
    },
    {
      "inputs": [],
      "name": "INITIAL_SUPPLY",
      "outputs": [
        {
          "internalType": "uint256",
          "name": "",
          "type": "uint256"
        }
      ],
      "stateMutability": "view",
      "type": "function"
    },
    {
      "inputs": [],
      "name": "LOAN_DURATION",
      "outputs": [
        {
          "internalType": "uint256",
          "name": "",
          "type": "uint256"
        }
      ],
      "stateMutability": "view",
      "type": "function"
    },
    {
      "inputs": [],
      "name": "LOAN_FEE",
      "outputs": [
        {
          "internalType": "uint256",
          "name": "",
          "type": "uint256"
        }
      ],
      "stateMutability": "view",
      "type": "function"
    },
    {
      "inputs": [],
      "name": "LOAN_INTEREST",
      "outputs": [
        {
          "internalType": "uint256",
          "name": "",
          "type": "uint256"
        }
      ],
      "stateMutability": "view",
      "type": "function"
    },
    {
      "inputs": [
        {
          "internalType": "address",
          "name": "owner",
          "type": "address"
        },
        {
          "internalType": "address",
          "name": "spender",
          "type": "address"
        }
      ],
      "name": "allowance",
      "outputs": [
        {
          "internalType": "uint256",
          "name": "",
          "type": "uint256"
        }
      ],
      "stateMutability": "view",
      "type": "function"
    },
    {
      "inputs": [
        {
          "internalType": "address",
          "name": "spender",
          "type": "address"
        },
        {
          "internalType": "uint256",
          "name": "amount",
          "type": "uint256"
        }
      ],
      "name": "approve",
      "outputs": [
        {
          "internalType": "bool",
          "name": "",
          "type": "bool"
        }
      ],
      "stateMutability": "nonpayable",
      "type": "function"
    },
    {
      "inputs": [
        {
          "internalType": "address",
          "name": "account",
          "type": "address"
        }
      ],
      "name": "balanceOf",
      "outputs": [
        {
          "internalType": "uint256",
          "name": "",
          "type": "uint256"
        }
      ],
      "stateMutability": "view",
      "type": "function"
    },
    {
      "inputs": [
        {
          "internalType": "address",
          "name": "",
          "type": "address"
        }
      ],
      "name": "blockedAccounts",
      "outputs": [
        {
          "internalType": "bool",
          "name": "",
          "type": "bool"
        }
      ],
      "stateMutability": "view",
      "type": "function"
    },
    {
      "inputs": [],
      "name": "decimals",
      "outputs": [
        {
          "internalType": "uint8",
          "name": "",
          "type": "uint8"
        }
      ],
      "stateMutability": "view",
      "type": "function"
    },
    {
      "inputs": [
        {
          "internalType": "address",
          "name": "spender",
          "type": "address"
        },
        {
          "internalType": "uint256",
          "name": "subtractedValue",
          "type": "uint256"
        }
      ],
      "name": "decreaseAllowance",
      "outputs": [
        {
          "internalType": "bool",
          "name": "",
          "type": "bool"
        }
      ],
      "stateMutability": "nonpayable",
      "type": "function"
    },
    {
      "inputs": [
        {
          "internalType": "address",
          "name": "spender",
          "type": "address"
        },
        {
          "internalType": "uint256",
          "name": "addedValue",
          "type": "uint256"
        }
      ],
      "name": "increaseAllowance",
      "outputs": [
        {
          "internalType": "bool",
          "name": "",
          "type": "bool"
        }
      ],
      "stateMutability": "nonpayable",
      "type": "function"
    },
    {
      "inputs": [
        {
          "internalType": "uint256",
          "name": "",
          "type": "uint256"
        }
      ],
      "name": "loans",
      "outputs": [
        {
          "internalType": "uint256",
          "name": "amount",
          "type": "uint256"
        },
        {
          "internalType": "uint256",
          "name": "dueDate",
          "type": "uint256"
        },
        {
          "internalType": "bool",
          "name": "isPaid",
          "type": "bool"
        },
        {
          "internalType": "address",
          "name": "borrower",
          "type": "address"
        },
        {
          "internalType": "address",
          "name": "lender",
          "type": "address"
        }
      ],
      "stateMutability": "view",
      "type": "function"
    },
    {
      "inputs": [],
      "name": "name",
      "outputs": [
        {
          "internalType": "string",
          "name": "",
          "type": "string"
        }
      ],
      "stateMutability": "view",
      "type": "function"
    },
    {
      "inputs": [
        {
          "internalType": "address",
          "name": "",
          "type": "address"
        }
      ],
      "name": "registeredUsers",
      "outputs": [
        {
          "internalType": "bool",
          "name": "",
          "type": "bool"
        }
      ],
      "stateMutability": "view",
      "type": "function"
    },
    {
      "inputs": [],
      "name": "symbol",
      "outputs": [
        {
          "internalType": "string",
          "name": "",
          "type": "string"
        }
      ],
      "stateMutability": "view",
      "type": "function"
    },
    {
      "inputs": [],
      "name": "totalSupply",
      "outputs": [
        {
          "internalType": "uint256",
          "name": "",
          "type": "uint256"
        }
      ],
      "stateMutability": "view",
      "type": "function"
    },
    {
      "inputs": [
        {
          "internalType": "address",
          "name": "to",
          "type": "address"
        },
        {
          "internalType": "uint256",
          "name": "amount",
          "type": "uint256"
        }
      ],
      "name": "transfer",
      "outputs": [
        {
          "internalType": "bool",
          "name": "",
          "type": "bool"
        }
      ],
      "stateMutability": "nonpayable",
      "type": "function"
    },
    {
      "stateMutability": "payable",
      "type": "receive"
    },
    {
      "inputs": [],
      "name": "register",
      "outputs": [],
      "stateMutability": "nonpayable",
      "type": "function"
    },
    {
      "inputs": [
        {
          "internalType": "address",
          "name": "lender",
          "type": "address"
        },
        {
          "internalType": "uint256",
          "name": "amount",
          "type": "uint256"
        }
      ],
      "name": "requestLoan",
      "outputs": [],
      "stateMutability": "nonpayable",
      "type": "function"
    },
    {
      "inputs": [
        {
          "internalType": "uint256",
          "name": "loanId",
          "type": "uint256"
        }
      ],
      "name": "payLoan",
      "outputs": [],
      "stateMutability": "payable",
      "type": "function"
    },
    {
      "inputs": [
        {
          "internalType": "uint256",
          "name": "amount",
          "type": "uint256"
        }
      ],
      "name": "redeem",
      "outputs": [],
      "stateMutability": "nonpayable",
      "type": "function"
    },
    {
      "inputs": [],
      "name": "checkOverdueLoans",
      "outputs": [],
      "stateMutability": "nonpayable",
      "type": "function"
    },
    {
      "inputs": [
        {
          "internalType": "address",
          "name": "sender",
          "type": "address"
        },
        {
          "internalType": "address",
          "name": "recipient",
          "type": "address"
        },
        {
          "internalType": "uint256",
          "name": "amount",
          "type": "uint256"
        }
      ],
      "name": "transferFrom",
      "outputs": [
        {
          "internalType": "bool",
          "name": "",
          "type": "bool"
        }
      ],
      "stateMutability": "nonpayable",
      "type": "function"
    },
    {
      "inputs": [
        {
          "internalType": "uint256",
          "name": "empfAmount",
          "type": "uint256"
        }
      ],
      "name": "transferempfToEth",
      "outputs": [
        {
          "internalType": "uint256",
          "name": "",
          "type": "uint256"
        }
      ],
      "stateMutability": "pure",
      "type": "function"
    },
    {
      "inputs": [],
      "name": "tokenInfo",
      "outputs": [
        {
          "internalType": "string",
          "name": "name",
          "type": "string"
        },
        {
          "internalType": "string",
          "name": "symbol",
          "type": "string"
        },
        {
          "internalType": "uint8",
          "name": "decimals",
          "type": "uint8"
        },
        {
          "internalType": "uint256",
          "name": "totalSupply",
          "type": "uint256"
        }
      ],
      "stateMutability": "view",
      "type": "function"
    }
  ],
  "bytecode": "0x60806040523480156200001157600080fd5b506040518060400160405280600e81526020017f456d70726573746120466163696c0000000000000000000000000000000000008152506040518060400160405280600481526020017f454d5046000000000000000000000000000000000000000000000000000000008152508160039080519060200190620000969291906200024b565b508060049080519060200190620000af9291906200024b565b505050620000cd3368056bc75e2d63100000620000d360201b60201c565b620004a7565b600073ffffffffffffffffffffffffffffffffffffffff168273ffffffffffffffffffffffffffffffffffffffff16141562000146576040517f08c379a00000000000000000000000000000000000000000000000000000000081526004016200013d906200035c565b60405180910390fd5b6200015a600083836200024160201b60201c565b80600260008282546200016e9190620003b7565b92505081905550806000808473ffffffffffffffffffffffffffffffffffffffff1673ffffffffffffffffffffffffffffffffffffffff168152602001908152602001600020600082825401925050819055508173ffffffffffffffffffffffffffffffffffffffff16600073ffffffffffffffffffffffffffffffffffffffff167fddf252ad1be2c89b69c2b068fc378daa952ba7f163c4a11628f55a4df523b3ef8360405162000221919062000425565b60405180910390a36200023d600083836200024660201b60201c565b5050565b505050565b505050565b828054620002599062000471565b90600052602060002090601f0160209004810192826200027d5760008555620002c9565b82601f106200029857805160ff1916838001178555620002c9565b82800160010185558215620002c9579182015b82811115620002c8578251825591602001919060010190620002ab565b5b509050620002d89190620002dc565b5090565b5b80821115620002f7576000816000905550600101620002dd565b5090565b600082825260208201905092915050565b7f45524332303a206d696e7420746f20746865207a65726f206164647265737300600082015250565b600062000344601f83620002fb565b915062000351826200030c565b602082019050919050565b60006020820190508181036000830152620003778162000335565b9050919050565b6000819050919050565b7f4e487b7100000000000000000000000000000000000000000000000000000000600052601160045260246000fd5b6000620003c4826200037e565b9150620003d1836200037e565b9250827fffffffffffffffffffffffffffffffffffffffffffffffffffffffffffffffff0382111562000409576200040862000388565b5b828201905092915050565b6200041f816200037e565b82525050565b60006020820190506200043c600083018462000414565b92915050565b7f4e487b7100000000000000000000000000000000000000000000000000000000600052602260045260246000fd5b600060028204905060018216806200048a57607f821691505b60208210811415620004a157620004a062000442565b5b50919050565b61322d80620004b76000396000f3fe6080604052600436106101855760003560e01c80636addb663116100d1578063a9059cbb1161008a578063dd62ed3e11610064578063dd62ed3e1461059b578063e02a4dfd146105d8578063e1ec3c6814610603578063f45bf3d2146106445761018c565b8063a9059cbb146104f8578063d4f49dcf14610535578063db006a75146105725761018c565b80636addb663146103e057806370a082311461040e5780637c46499b1461044b57806395d89b4114610474578063a457c2d71461049f578063a8d7b3ec146104dc5761018c565b80632ff2e9dc1161013e578063374cb14c11610118578063374cb14c1461033657806339509351146103615780633abfa0101461039e57806352a3e314146103c95761018c565b80632ff2e9dc146102b557806330e4bfce146102e0578063313ce5671461030b5761018c565b806306fdde0314610191578063095ea7b3146101bc5780630e50cee5146101f957806318160ddd146102365780631aa3a0081461026157806323b872dd146102785761018c565b3661018c57005b600080fd5b34801561019d57600080fd5b506101a6610681565b6040516101b39190611f71565b60405180910390f35b3480156101c857600080fd5b506101e360048036038101906101de919061203b565b610713565b6040516101f09190612096565b60405180910390f35b34801561020557600080fd5b50610220600480360381019061021b91906120b1565b610736565b60405161022d9190612096565b60405180910390f35b34801561024257600080fd5b5061024b610756565b60405161025891906120ed565b60405180910390f35b34801561026d57600080fd5b50610276610760565b005b34801561028457600080fd5b5061029f600480360381019061029a9190612108565b61089d565b6040516102ac9190612096565b60405180910390f35b3480156102c157600080fd5b506102ca6109cd565b6040516102d791906120ed565b60405180910390f35b3480156102ec57600080fd5b506102f56109da565b60405161030291906120ed565b60405180910390f35b34801561031757600080fd5b506103206109df565b60405161032d9190612177565b60405180910390f35b34801561034257600080fd5b5061034b6109e8565b60405161035891906120ed565b60405180910390f35b34801561036d57600080fd5b506103886004803603810190610383919061203b565b6109ed565b6040516103959190612096565b60405180910390f35b3480156103aa57600080fd5b506103b3610a24565b6040516103c091906120ed565b60405180910390f35b3480156103d557600080fd5b506103de610a29565b005b3480156103ec57600080fd5b506103f5610b56565b6040516104059493929190612192565b60405180910390f35b34801561041a57600080fd5b50610435600480360381019061043091906120b1565b610d6c565b60405161044291906120ed565b60405180910390f35b34801561045757600080fd5b50610472600480360381019061046d919061203b565b610db4565b005b34801561048057600080fd5b50610489611066565b6040516104969190611f71565b60405180910390f35b3480156104ab57600080fd5b506104c660048036038101906104c1919061203b565b6110f8565b6040516104d39190612096565b60405180910390f35b6104f660048036038101906104f191906121e5565b61116f565b005b34801561050457600080fd5b5061051f600480360381019061051a919061203b565b61139c565b60405161052c9190612096565b60405180910390f35b34801561054157600080fd5b5061055c600480360381019061055791906121e5565b6113bf565b60405161056991906120ed565b60405180910390f35b34801561057e57600080fd5b50610599600480360381019061059491906121e5565b6113ee565b005b3480156105a757600080fd5b506105c260048036038101906105bd9190612212565b611562565b6040516105cf91906120ed565b60405180910390f35b3480156105e457600080fd5b506105ed6115e9565b6040516105fa91906120ed565b60405180910390f35b34801561060f57600080fd5b5061062a600480360381019061062591906121e5565b6115f0565b60405161063b959493929190612261565b60405180910390f35b34801561065057600080fd5b5061066b600480360381019061066691906120b1565b611683565b6040516106789190612096565b60405180910390f35b606060038054610690906122e3565b80601f01602080910402602001604051908101604052809291908181526020018280546106bc906122e3565b80156107095780601f106106de57610100808354040283529160200191610709565b820191906000526020600020905b8154815290600101906020018083116106ec57829003601f168201915b5050505050905090565b60008061071e6116a3565b905061072b8185856116ab565b600191505092915050565b60066020528060005260406000206000915054906101000a900460ff1681565b6000600254905090565b600660003373ffffffffffffffffffffffffffffffffffffffff1673ffffffffffffffffffffffffffffffffffffffff16815260200190815260200160002060009054906101000a900460ff16156107ed576040517f08c379a00000000000000000000000000000000000000000000000000000000081526004016107e490612361565b60405180910390fd5b6001600660003373ffffffffffffffffffffffffffffffffffffffff1673ffffffffffffffffffffffffffffffffffffffff16815260200190815260200160002060006101000a81548160ff0219169083151502179055506108583368056bc75e2d63100000611876565b3373ffffffffffffffffffffffffffffffffffffffff167f54db7a5cb4735e1aac1f53db512d3390390bb6637bd30ad4bf9fc98667d9b9b960405160405180910390a2565b6000600760008573ffffffffffffffffffffffffffffffffffffffff1673ffffffffffffffffffffffffffffffffffffffff16815260200190815260200160002060009054906101000a900460ff161561092c576040517f08c379a0000000000000000000000000000000000000000000000000000000008152600401610923906123cd565b60405180910390fd5b600760008473ffffffffffffffffffffffffffffffffffffffff1673ffffffffffffffffffffffffffffffffffffffff16815260200190815260200160002060009054906101000a900460ff16156109b9576040517f08c379a00000000000000000000000000000000000000000000000000000000081526004016109b090612439565b60405180910390fd5b6109c48484846119cd565b90509392505050565b68056bc75e2d6310000081565b600a81565b60006012905090565b600181565b6000806109f86116a3565b9050610a19818585610a0a8589611562565b610a149190612488565b6116ab565b600191505092915050565b606481565b60005b600580549050811015610b535760058181548110610a4d57610a4c6124de565b5b906000526020600020906004020160020160009054906101000a900460ff16158015610a9d57504260058281548110610a8957610a886124de565b5b906000526020600020906004020160010154105b15610b405760016007600060058481548110610abc57610abb6124de565b5b906000526020600020906004020160020160019054906101000a900473ffffffffffffffffffffffffffffffffffffffff1673ffffffffffffffffffffffffffffffffffffffff1673ffffffffffffffffffffffffffffffffffffffff16815260200190815260200160002060006101000a81548160ff0219169083151502179055505b8080610b4b9061250d565b915050610a2c565b50565b6060806000803073ffffffffffffffffffffffffffffffffffffffff166306fdde036040518163ffffffff1660e01b815260040160006040518083038186803b158015610ba257600080fd5b505afa158015610bb6573d6000803e3d6000fd5b505050506040513d6000823e3d601f19601f82011682018060405250810190610bdf919061267c565b3073ffffffffffffffffffffffffffffffffffffffff166395d89b416040518163ffffffff1660e01b815260040160006040518083038186803b158015610c2557600080fd5b505afa158015610c39573d6000803e3d6000fd5b505050506040513d6000823e3d601f19601f82011682018060405250810190610c62919061267c565b3073ffffffffffffffffffffffffffffffffffffffff1663313ce5676040518163ffffffff1660e01b815260040160206040518083038186803b158015610ca857600080fd5b505afa158015610cbc573d6000803e3d6000fd5b505050506040513d601f19601f82011682018060405250810190610ce091906126f1565b3073ffffffffffffffffffffffffffffffffffffffff166318160ddd6040518163ffffffff1660e01b815260040160206040518083038186803b158015610d2657600080fd5b505afa158015610d3a573d6000803e3d6000fd5b505050506040513d601f19601f82011682018060405250810190610d5e9190612733565b935093509350935090919293565b60008060008373ffffffffffffffffffffffffffffffffffffffff1673ffffffffffffffffffffffffffffffffffffffff168152602001908152602001600020549050919050565b600660003373ffffffffffffffffffffffffffffffffffffffff1673ffffffffffffffffffffffffffffffffffffffff16815260200190815260200160002060009054906101000a900460ff16610e40576040517f08c379a0000000000000000000000000000000000000000000000000000000008152600401610e37906127ac565b60405180910390fd5b80610e4a83610d6c565b1015610e8b576040517f08c379a0000000000000000000000000000000000000000000000000000000008152600401610e829061283e565b60405180910390fd5b610e9682338361089d565b5060056040518060a0016040528083815260200162278d0042610eb99190612488565b81526020016000151581526020013373ffffffffffffffffffffffffffffffffffffffff1681526020018473ffffffffffffffffffffffffffffffffffffffff168152509080600181540180825580915050600190039060005260206000209060040201600090919091909150600082015181600001556020820151816001015560408201518160020160006101000a81548160ff02191690831515021790555060608201518160020160016101000a81548173ffffffffffffffffffffffffffffffffffffffff021916908373ffffffffffffffffffffffffffffffffffffffff16021790555060808201518160030160006101000a81548173ffffffffffffffffffffffffffffffffffffffff021916908373ffffffffffffffffffffffffffffffffffffffff16021790555050508173ffffffffffffffffffffffffffffffffffffffff163373ffffffffffffffffffffffffffffffffffffffff167f74b3e97b2a36ecfc8a1c59a0f98862174d98f86769a3420cf68024a054f87b6d600160058054905061104b919061285e565b8460405161105a929190612892565b60405180910390a35050565b606060048054611075906122e3565b80601f01602080910402602001604051908101604052809291908181526020018280546110a1906122e3565b80156110ee5780601f106110c3576101008083540402835291602001916110ee565b820191906000526020600020905b8154815290600101906020018083116110d157829003601f168201915b5050505050905090565b6000806111036116a3565b905060006111118286611562565b905083811015611156576040517f08c379a000000000000000000000000000000000000000000000000000000000815260040161114d9061292d565b60405180910390fd5b61116382868684036116ab565b60019250505092915050565b600060058281548110611185576111846124de565b5b906000526020600020906004020190508060020160019054906101000a900473ffffffffffffffffffffffffffffffffffffffff1673ffffffffffffffffffffffffffffffffffffffff163373ffffffffffffffffffffffffffffffffffffffff1614611227576040517f08c379a000000000000000000000000000000000000000000000000000000000815260040161121e906129bf565b60405180910390fd5b8060020160009054906101000a900460ff1615611279576040517f08c379a000000000000000000000000000000000000000000000000000000000815260040161127090612a2b565b60405180910390fd5b6064600a60646112899190612488565b82600001546112989190612a4b565b6112a29190612ad4565b6112ab33610d6c565b10156112ec576040517f08c379a00000000000000000000000000000000000000000000000000000000081526004016112e390612b77565b60405180910390fd5b611343338260030160009054906101000a900473ffffffffffffffffffffffffffffffffffffffff166064600a60646113259190612488565b85600001546113349190612a4b565b61133e9190612ad4565b61089d565b5060018160020160006101000a81548160ff0219169083151502179055507f4a68b5f533483406096e260e9119417eff3bf8f56e9b3eb399dc5f97e898a2bc8260405161139091906120ed565b60405180910390a15050565b6000806113a76116a3565b90506113b48185856119fc565b600191505092915050565b6000806103e89050670de0b6b3a764000081846113dc9190612a4b565b6113e69190612ad4565b915050919050565b60006103e890506000670de0b6b3a7640000828461140c9190612a4b565b6114169190612ad4565b90508261142233610d6c565b1015611463576040517f08c379a000000000000000000000000000000000000000000000000000000000815260040161145a90612be3565b60405180910390fd5b804710156114a6576040517f08c379a000000000000000000000000000000000000000000000000000000000815260040161149d90612c4f565b60405180910390fd5b6114b03384611c74565b60003373ffffffffffffffffffffffffffffffffffffffff16826040516114d690612ca0565b60006040518083038185875af1925050503d8060008114611513576040519150601f19603f3d011682016040523d82523d6000602084013e611518565b606091505b505090508061155c576040517f08c379a000000000000000000000000000000000000000000000000000000000815260040161155390612d01565b60405180910390fd5b50505050565b6000600160008473ffffffffffffffffffffffffffffffffffffffff1673ffffffffffffffffffffffffffffffffffffffff16815260200190815260200160002060008373ffffffffffffffffffffffffffffffffffffffff1673ffffffffffffffffffffffffffffffffffffffff16815260200190815260200160002054905092915050565b62278d0081565b6005818154811061160057600080fd5b90600052602060002090600402016000915090508060000154908060010154908060020160009054906101000a900460ff16908060020160019054906101000a900473ffffffffffffffffffffffffffffffffffffffff16908060030160009054906101000a900473ffffffffffffffffffffffffffffffffffffffff16905085565b60076020528060005260406000206000915054906101000a900460ff1681565b600033905090565b600073ffffffffffffffffffffffffffffffffffffffff168373ffffffffffffffffffffffffffffffffffffffff16141561171b576040517f08c379a000000000000000000000000000000000000000000000000000000000815260040161171290612d93565b60405180910390fd5b600073ffffffffffffffffffffffffffffffffffffffff168273ffffffffffffffffffffffffffffffffffffffff16141561178b576040517f08c379a000000000000000000000000000000000000000000000000000000000815260040161178290612e25565b60405180910390fd5b80600160008573ffffffffffffffffffffffffffffffffffffffff1673ffffffffffffffffffffffffffffffffffffffff16815260200190815260200160002060008473ffffffffffffffffffffffffffffffffffffffff1673ffffffffffffffffffffffffffffffffffffffff168152602001908152602001600020819055508173ffffffffffffffffffffffffffffffffffffffff168373ffffffffffffffffffffffffffffffffffffffff167f8c5be1e5ebec7d5bd14f71427d1e84f3dd0314c0f7b2291e5b200ac8c7c3b9258360405161186991906120ed565b60405180910390a3505050565b600073ffffffffffffffffffffffffffffffffffffffff168273ffffffffffffffffffffffffffffffffffffffff1614156118e6576040517f08c379a00000000000000000000000000000000000000000000000000000000081526004016118dd90612e91565b60405180910390fd5b6118f260008383611e42565b80600260008282546119049190612488565b92505081905550806000808473ffffffffffffffffffffffffffffffffffffffff1673ffffffffffffffffffffffffffffffffffffffff168152602001908152602001600020600082825401925050819055508173ffffffffffffffffffffffffffffffffffffffff16600073ffffffffffffffffffffffffffffffffffffffff167fddf252ad1be2c89b69c2b068fc378daa952ba7f163c4a11628f55a4df523b3ef836040516119b591906120ed565b60405180910390a36119c960008383611e47565b5050565b6000806119d86116a3565b90506119e5858285611e4c565b6119f08585856119fc565b60019150509392505050565b600073ffffffffffffffffffffffffffffffffffffffff168373ffffffffffffffffffffffffffffffffffffffff161415611a6c576040517f08c379a0000000000000000000000000000000000000000000000000000000008152600401611a6390612f23565b60405180910390fd5b600073ffffffffffffffffffffffffffffffffffffffff168273ffffffffffffffffffffffffffffffffffffffff161415611adc576040517f08c379a0000000000000000000000000000000000000000000000000000000008152600401611ad390612fb5565b60405180910390fd5b611ae7838383611e42565b60008060008573ffffffffffffffffffffffffffffffffffffffff1673ffffffffffffffffffffffffffffffffffffffff16815260200190815260200160002054905081811015611b6d576040517f08c379a0000000000000000000000000000000000000000000000000000000008152600401611b6490613047565b60405180910390fd5b8181036000808673ffffffffffffffffffffffffffffffffffffffff1673ffffffffffffffffffffffffffffffffffffffff16815260200190815260200160002081905550816000808573ffffffffffffffffffffffffffffffffffffffff1673ffffffffffffffffffffffffffffffffffffffff168152602001908152602001600020600082825401925050819055508273ffffffffffffffffffffffffffffffffffffffff168473ffffffffffffffffffffffffffffffffffffffff167fddf252ad1be2c89b69c2b068fc378daa952ba7f163c4a11628f55a4df523b3ef84604051611c5b91906120ed565b60405180910390a3611c6e848484611e47565b50505050565b600073ffffffffffffffffffffffffffffffffffffffff168273ffffffffffffffffffffffffffffffffffffffff161415611ce4576040517f08c379a0000000000000000000000000000000000000000000000000000000008152600401611cdb906130d9565b60405180910390fd5b611cf082600083611e42565b60008060008473ffffffffffffffffffffffffffffffffffffffff1673ffffffffffffffffffffffffffffffffffffffff16815260200190815260200160002054905081811015611d76576040517f08c379a0000000000000000000000000000000000000000000000000000000008152600401611d6d9061316b565b60405180910390fd5b8181036000808573ffffffffffffffffffffffffffffffffffffffff1673ffffffffffffffffffffffffffffffffffffffff1681526020019081526020016000208190555081600260008282540392505081905550600073ffffffffffffffffffffffffffffffffffffffff168373ffffffffffffffffffffffffffffffffffffffff167fddf252ad1be2c89b69c2b068fc378daa952ba7f163c4a11628f55a4df523b3ef84604051611e2991906120ed565b60405180910390a3611e3d83600084611e47565b505050565b505050565b505050565b6000611e588484611562565b90507fffffffffffffffffffffffffffffffffffffffffffffffffffffffffffffffff8114611ed25781811015611ec4576040517f08c379a0000000000000000000000000000000000000000000000000000000008152600401611ebb906131d7565b60405180910390fd5b611ed184848484036116ab565b5b50505050565b600081519050919050565b600082825260208201905092915050565b60005b83811015611f12578082015181840152602081019050611ef7565b83811115611f21576000848401525b50505050565b6000601f19601f8301169050919050565b6000611f4382611ed8565b611f4d8185611ee3565b9350611f5d818560208601611ef4565b611f6681611f27565b840191505092915050565b60006020820190508181036000830152611f8b8184611f38565b905092915050565b6000604051905090565b600080fd5b600080fd5b600073ffffffffffffffffffffffffffffffffffffffff82169050919050565b6000611fd282611fa7565b9050919050565b611fe281611fc7565b8114611fed57600080fd5b50565b600081359050611fff81611fd9565b92915050565b6000819050919050565b61201881612005565b811461202357600080fd5b50565b6000813590506120358161200f565b92915050565b6000806040838503121561205257612051611f9d565b5b600061206085828601611ff0565b925050602061207185828601612026565b9150509250929050565b60008115159050919050565b6120908161207b565b82525050565b60006020820190506120ab6000830184612087565b92915050565b6000602082840312156120c7576120c6611f9d565b5b60006120d584828501611ff0565b91505092915050565b6120e781612005565b82525050565b600060208201905061210260008301846120de565b92915050565b60008060006060848603121561212157612120611f9d565b5b600061212f86828701611ff0565b935050602061214086828701611ff0565b925050604061215186828701612026565b9150509250925092565b600060ff82169050919050565b6121718161215b565b82525050565b600060208201905061218c6000830184612168565b92915050565b600060808201905081810360008301526121ac8187611f38565b905081810360208301526121c08186611f38565b90506121cf6040830185612168565b6121dc60608301846120de565b95945050505050565b6000602082840312156121fb576121fa611f9d565b5b600061220984828501612026565b91505092915050565b6000806040838503121561222957612228611f9d565b5b600061223785828601611ff0565b925050602061224885828601611ff0565b9150509250929050565b61225b81611fc7565b82525050565b600060a08201905061227660008301886120de565b61228360208301876120de565b6122906040830186612087565b61229d6060830185612252565b6122aa6080830184612252565b9695505050505050565b7f4e487b7100000000000000000000000000000000000000000000000000000000600052602260045260246000fd5b600060028204905060018216806122fb57607f821691505b6020821081141561230f5761230e6122b4565b5b50919050565b7f5573657220616c72656164792072656769737465726564000000000000000000600082015250565b600061234b601783611ee3565b915061235682612315565b602082019050919050565b6000602082019050818103600083015261237a8161233e565b9050919050565b7f53656e646572206163636f756e7420697320626c6f636b656400000000000000600082015250565b60006123b7601983611ee3565b91506123c282612381565b602082019050919050565b600060208201905081810360008301526123e6816123aa565b9050919050565b7f526563697069656e74206163636f756e7420697320626c6f636b656400000000600082015250565b6000612423601c83611ee3565b915061242e826123ed565b602082019050919050565b6000602082019050818103600083015261245281612416565b9050919050565b7f4e487b7100000000000000000000000000000000000000000000000000000000600052601160045260246000fd5b600061249382612005565b915061249e83612005565b9250827fffffffffffffffffffffffffffffffffffffffffffffffffffffffffffffffff038211156124d3576124d2612459565b5b828201905092915050565b7f4e487b7100000000000000000000000000000000000000000000000000000000600052603260045260246000fd5b600061251882612005565b91507fffffffffffffffffffffffffffffffffffffffffffffffffffffffffffffffff82141561254b5761254a612459565b5b600182019050919050565b600080fd5b600080fd5b7f4e487b7100000000000000000000000000000000000000000000000000000000600052604160045260246000fd5b61259882611f27565b810181811067ffffffffffffffff821117156125b7576125b6612560565b5b80604052505050565b60006125ca611f93565b90506125d6828261258f565b919050565b600067ffffffffffffffff8211156125f6576125f5612560565b5b6125ff82611f27565b9050602081019050919050565b600061261f61261a846125db565b6125c0565b90508281526020810184848401111561263b5761263a61255b565b5b612646848285611ef4565b509392505050565b600082601f83011261266357612662612556565b5b815161267384826020860161260c565b91505092915050565b60006020828403121561269257612691611f9d565b5b600082015167ffffffffffffffff8111156126b0576126af611fa2565b5b6126bc8482850161264e565b91505092915050565b6126ce8161215b565b81146126d957600080fd5b50565b6000815190506126eb816126c5565b92915050565b60006020828403121561270757612706611f9d565b5b6000612715848285016126dc565b91505092915050565b60008151905061272d8161200f565b92915050565b60006020828403121561274957612748611f9d565b5b60006127578482850161271e565b91505092915050565b7f55736572206e6f74207265676973746572656400000000000000000000000000600082015250565b6000612796601383611ee3565b91506127a182612760565b602082019050919050565b600060208201905081810360008301526127c581612789565b9050919050565b7f4c656e64657220646f6573206e6f74206861766520656e6f75676820746f6b6560008201527f6e73000000000000000000000000000000000000000000000000000000000000602082015250565b6000612828602283611ee3565b9150612833826127cc565b604082019050919050565b600060208201905081810360008301526128578161281b565b9050919050565b600061286982612005565b915061287483612005565b92508282101561288757612886612459565b5b828203905092915050565b60006040820190506128a760008301856120de565b6128b460208301846120de565b9392505050565b7f45524332303a2064656372656173656420616c6c6f77616e63652062656c6f7760008201527f207a65726f000000000000000000000000000000000000000000000000000000602082015250565b6000612917602583611ee3565b9150612922826128bb565b604082019050919050565b600060208201905081810360008301526129468161290a565b9050919050565b7f4f6e6c792074686520626f72726f7765722063616e2070617920746865206c6f60008201527f616e000000000000000000000000000000000000000000000000000000000000602082015250565b60006129a9602283611ee3565b91506129b48261294d565b604082019050919050565b600060208201905081810360008301526129d88161299c565b9050919050565b7f4c6f616e20697320616c72656164792070616964000000000000000000000000600082015250565b6000612a15601483611ee3565b9150612a20826129df565b602082019050919050565b60006020820190508181036000830152612a4481612a08565b9050919050565b6000612a5682612005565b9150612a6183612005565b9250817fffffffffffffffffffffffffffffffffffffffffffffffffffffffffffffffff0483118215151615612a9a57612a99612459565b5b828202905092915050565b7f4e487b7100000000000000000000000000000000000000000000000000000000600052601260045260246000fd5b6000612adf82612005565b9150612aea83612005565b925082612afa57612af9612aa5565b5b828204905092915050565b7f426f72726f77657220646f6573206e6f74206861766520656e6f75676820746f60008201527f6b656e7300000000000000000000000000000000000000000000000000000000602082015250565b6000612b61602483611ee3565b9150612b6c82612b05565b604082019050919050565b60006020820190508181036000830152612b9081612b54565b9050919050565b7f496e73756666696369656e7420656d70662062616c616e636500000000000000600082015250565b6000612bcd601983611ee3565b9150612bd882612b97565b602082019050919050565b60006020820190508181036000830152612bfc81612bc0565b9050919050565b7f496e73756666696369656e74204554482062616c616e63650000000000000000600082015250565b6000612c39601883611ee3565b9150612c4482612c03565b602082019050919050565b60006020820190508181036000830152612c6881612c2c565b9050919050565b600081905092915050565b50565b6000612c8a600083612c6f565b9150612c9582612c7a565b600082019050919050565b6000612cab82612c7d565b9150819050919050565b7f5472616e73666572206661696c65640000000000000000000000000000000000600082015250565b6000612ceb600f83611ee3565b9150612cf682612cb5565b602082019050919050565b60006020820190508181036000830152612d1a81612cde565b9050919050565b7f45524332303a20617070726f76652066726f6d20746865207a65726f2061646460008201527f7265737300000000000000000000000000000000000000000000000000000000602082015250565b6000612d7d602483611ee3565b9150612d8882612d21565b604082019050919050565b60006020820190508181036000830152612dac81612d70565b9050919050565b7f45524332303a20617070726f766520746f20746865207a65726f20616464726560008201527f7373000000000000000000000000000000000000000000000000000000000000602082015250565b6000612e0f602283611ee3565b9150612e1a82612db3565b604082019050919050565b60006020820190508181036000830152612e3e81612e02565b9050919050565b7f45524332303a206d696e7420746f20746865207a65726f206164647265737300600082015250565b6000612e7b601f83611ee3565b9150612e8682612e45565b602082019050919050565b60006020820190508181036000830152612eaa81612e6e565b9050919050565b7f45524332303a207472616e736665722066726f6d20746865207a65726f20616460008201527f6472657373000000000000000000000000000000000000000000000000000000602082015250565b6000612f0d602583611ee3565b9150612f1882612eb1565b604082019050919050565b60006020820190508181036000830152612f3c81612f00565b9050919050565b7f45524332303a207472616e7366657220746f20746865207a65726f206164647260008201527f6573730000000000000000000000000000000000000000000000000000000000602082015250565b6000612f9f602383611ee3565b9150612faa82612f43565b604082019050919050565b60006020820190508181036000830152612fce81612f92565b9050919050565b7f45524332303a207472616e7366657220616d6f756e742065786365656473206260008201527f616c616e63650000000000000000000000000000000000000000000000000000602082015250565b6000613031602683611ee3565b915061303c82612fd5565b604082019050919050565b6000602082019050818103600083015261306081613024565b9050919050565b7f45524332303a206275726e2066726f6d20746865207a65726f2061646472657360008201527f7300000000000000000000000000000000000000000000000000000000000000602082015250565b60006130c3602183611ee3565b91506130ce82613067565b604082019050919050565b600060208201905081810360008301526130f2816130b6565b9050919050565b7f45524332303a206275726e20616d6f756e7420657863656564732062616c616e60008201527f6365000000000000000000000000000000000000000000000000000000000000602082015250565b6000613155602283611ee3565b9150613160826130f9565b604082019050919050565b6000602082019050818103600083015261318481613148565b9050919050565b7f45524332303a20696e73756666696369656e7420616c6c6f77616e6365000000600082015250565b60006131c1601d83611ee3565b91506131cc8261318b565b602082019050919050565b600060208201905081810360008301526131f0816131b4565b905091905056fea26469706673582212202f04828d376546d84dfe1dfbb681c6b38becf6b1b76542114d849d86f7c175de64736f6c63430008090033",
  "immutableReferences": {},
  "source": "//SPDX-License-Identifier: MIT\r\npragma solidity ^0.8.9;\r\n\r\nimport \"../node_modules/@openzeppelin/contracts/token/ERC20/ERC20.sol\";\r\n\r\ncontract EmprestaFacil is ERC20 {\r\n    uint256 public constant INITIAL_SUPPLY = 100 * 10**18;\r\n    uint256 public constant EMPF_TO_ETH = 100; // 1 EMPF = 0.001 ETH\r\n    uint256 public constant LOAN_INTEREST = 10; // 10%\r\n    uint256 public constant LOAN_FEE = 1; // 1% fee\r\n    uint256 public constant LOAN_DURATION = 30 days;\r\n    \r\n    struct Loan {\r\n        uint256 amount;\r\n        uint256 dueDate;\r\n        bool isPaid;\r\n        address borrower;\r\n        address lender;\r\n    }\r\n\r\n    Loan[] public loans;\r\n\r\n    mapping(address => bool) public registeredUsers;\r\n    mapping(address => bool) public blockedAccounts;\r\n\r\n    event UserRegistered(address indexed user);\r\n    event LoanCreated(uint256 loanId, address indexed borrower, address indexed lender, uint256 amount);\r\n    event LoanPaid(uint256 loanId);\r\n\r\n    constructor() ERC20(\"Empresta Facil\", \"EMPF\") {\r\n        _mint(msg.sender, INITIAL_SUPPLY);\r\n    }\r\n\r\n    function register() public {\r\n        require(!registeredUsers[msg.sender], \"User already registered\");\r\n        registeredUsers[msg.sender] = true;\r\n        _mint(msg.sender, 100 * 10**18); // Give 100 EMPF to the user\r\n        emit UserRegistered(msg.sender);\r\n    }\r\n\r\n    function requestLoan(address lender, uint256 amount) public {\r\n        require(registeredUsers[msg.sender], \"User not registered\");\r\n        require(balanceOf(lender) >= amount, \"Lender does not have enough tokens\");\r\n\r\n        // transfer the tokens to the borrower\r\n        transferFrom(lender, msg.sender, amount);\r\n\r\n        // Create the loan\r\n        loans.push(Loan({\r\n            amount: amount,\r\n            dueDate: block.timestamp + LOAN_DURATION,\r\n            isPaid: false,\r\n            borrower: msg.sender,\r\n            lender: lender\r\n        }));\r\n\r\n        emit LoanCreated(loans.length - 1, msg.sender, lender, amount);\r\n    }\r\n    \r\n    function payLoan(uint256 loanId) public payable {\r\n        Loan storage loan = loans[loanId];\r\n\r\n        require(msg.sender == loan.borrower, \"Only the borrower can pay the loan\");\r\n        require(!loan.isPaid, \"Loan is already paid\");\r\n        require(balanceOf(msg.sender) >= loan.amount * (100 + LOAN_INTEREST) / 100, \"Borrower does not have enough tokens\");\r\n\r\n        // Transfer the tokens to the lender\r\n        transferFrom(msg.sender, loan.lender, loan.amount * (100 + LOAN_INTEREST) / 100);\r\n\r\n        // Mark the loan as paid\r\n        loan.isPaid = true;\r\n\r\n        emit LoanPaid(loanId);\r\n    }\r\n\r\n    function redeem(uint256 amount) public {\r\n        uint256 empf_TO_ETH = 1000; // 1 EMPF = 0.001 ETH\r\n        uint256 ethAmount = (amount * empf_TO_ETH) / 10**18;\r\n        require(balanceOf(msg.sender) >= amount, \"Insufficient empf balance\");\r\n        require(address(this).balance >= ethAmount, \"Insufficient ETH balance\");\r\n\r\n        _burn(msg.sender, amount);\r\n\r\n        (bool success, ) = msg.sender.call{value: ethAmount}(\"\");\r\n        require(success, \"Transfer failed\");\r\n    }\r\n\r\n    function checkOverdueLoans() public {\r\n    for (uint i = 0; i < loans.length; i++) {\r\n        if (!loans[i].isPaid && loans[i].dueDate < block.timestamp) {\r\n            blockedAccounts[loans[i].borrower] = true;\r\n            }\r\n        }   \r\n    }\r\n\r\n    function penalizeBorrower(address borrower) internal {\r\n        blockedAccounts[borrower] = true;\r\n    }\r\n    \r\nfunction transferFrom(address sender, address recipient, uint256 amount) public override returns (bool) {\r\n    require(!blockedAccounts[sender], \"Sender account is blocked\");\r\n    require(!blockedAccounts[recipient], \"Recipient account is blocked\");\r\n    return super.transferFrom(sender, recipient, amount);\r\n}\r\n\r\n\r\n    function transferempfToEth(uint256 empfAmount) public pure returns (uint256) {\r\n        uint256 empf_TO_ETH = 1000; // 1 EMPF = 0.001 ETH\r\n        return (empfAmount * empf_TO_ETH) / 10**18;\r\n        }\r\n    \r\n\r\n    function tokenInfo() public view returns (string memory name, string memory symbol, uint8 decimals, uint256 totalSupply) {\r\n        return (this.name(), this.symbol(), this.decimals(), this.totalSupply());\r\n    }\r\n\r\n    receive() external payable {}\r\n}",
  "sourcePath": "d:\\Clouds\\Dropbox\\.Git\\ETHHackthon2023\\contracts\\EmprestaFacil.sol",
  "compiler": {
    "name": "solc",
    "version": "0.8.9+commit.e5eed63a.Emscripten.clang"
  },
  "schemaVersion": "3.4.14",
  "updatedAt": "2023-06-25T15:02:17.530Z",
  "devdoc": {
    "kind": "dev",
    "methods": {
      "allowance(address,address)": {
        "details": "See {IERC20-allowance}."
      },
      "approve(address,uint256)": {
        "details": "See {IERC20-approve}. NOTE: If `amount` is the maximum `uint256`, the allowance is not updated on `transferFrom`. This is semantically equivalent to an infinite approval. Requirements: - `spender` cannot be the zero address."
      },
      "balanceOf(address)": {
        "details": "See {IERC20-balanceOf}."
      },
      "decimals()": {
        "details": "Returns the number of decimals used to get its user representation. For example, if `decimals` equals `2`, a balance of `505` tokens should be displayed to a user as `5.05` (`505 / 10 ** 2`). Tokens usually opt for a value of 18, imitating the relationship between Ether and Wei. This is the default value returned by this function, unless it's overridden. NOTE: This information is only used for _display_ purposes: it in no way affects any of the arithmetic of the contract, including {IERC20-balanceOf} and {IERC20-transfer}."
      },
      "decreaseAllowance(address,uint256)": {
        "details": "Atomically decreases the allowance granted to `spender` by the caller. This is an alternative to {approve} that can be used as a mitigation for problems described in {IERC20-approve}. Emits an {Approval} event indicating the updated allowance. Requirements: - `spender` cannot be the zero address. - `spender` must have allowance for the caller of at least `subtractedValue`."
      },
      "increaseAllowance(address,uint256)": {
        "details": "Atomically increases the allowance granted to `spender` by the caller. This is an alternative to {approve} that can be used as a mitigation for problems described in {IERC20-approve}. Emits an {Approval} event indicating the updated allowance. Requirements: - `spender` cannot be the zero address."
      },
      "name()": {
        "details": "Returns the name of the token."
      },
      "symbol()": {
        "details": "Returns the symbol of the token, usually a shorter version of the name."
      },
      "totalSupply()": {
        "details": "See {IERC20-totalSupply}."
      },
      "transfer(address,uint256)": {
        "details": "See {IERC20-transfer}. Requirements: - `to` cannot be the zero address. - the caller must have a balance of at least `amount`."
      }
    },
    "version": 1
  },
  "userdoc": {
    "kind": "user",
    "methods": {},
    "version": 1
  }
}